{
  "contractName": "SimpleStorage",
  "abi": [
    {
      "constant": false,
      "inputs": [
        {
          "name": "x",
          "type": "uint256"
        }
      ],
      "name": "set",
      "outputs": [],
      "payable": false,
      "stateMutability": "nonpayable",
      "type": "function"
    },
    {
      "constant": true,
      "inputs": [],
      "name": "get",
      "outputs": [
        {
          "name": "",
          "type": "uint256"
        }
      ],
      "payable": false,
      "stateMutability": "view",
      "type": "function"
    },
    {
      "constant": false,
      "inputs": [
        {
          "name": "n",
          "type": "uint256"
        }
      ],
      "name": "increment",
      "outputs": [],
      "payable": false,
      "stateMutability": "nonpayable",
      "type": "function"
    },
    {
      "constant": false,
      "inputs": [
        {
          "name": "n",
          "type": "uint256"
        }
      ],
      "name": "decrement",
      "outputs": [],
      "payable": false,
      "stateMutability": "nonpayable",
      "type": "function"
    }
  ],
  "bytecode": "0x608060405234801561001057600080fd5b50610174806100206000396000f300608060405260043610610062576000357c0100000000000000000000000000000000000000000000000000000000900463ffffffff1680633a9ebefd1461006757806360fe47b1146100945780636d4ce63c146100c15780637cf5dab0146100ec575b600080fd5b34801561007357600080fd5b5061009260048036038101908080359060200190929190505050610119565b005b3480156100a057600080fd5b506100bf60048036038101908080359060200190929190505050610127565b005b3480156100cd57600080fd5b506100d6610131565b6040518082815260200191505060405180910390f35b3480156100f857600080fd5b506101176004803603810190808035906020019092919050505061013a565b005b806000540360008190555050565b8060008190555050565b60008054905090565b8060005401600081905550505600a165627a7a723058206bd153f4f8a5a93eecc12dbbf96a691296a4a720b4b39f6a48b744c83384b4340029",
  "source": "pragma solidity ^0.4.0; \r\n// Imagine a big integer that the whole world could share\r\ncontract SimpleStorage {\r\n    uint storedData;\r\n\r\n    function set(uint x) public {\r\n        storedData = x;\r\n    }\r\n\r\n    function get() constant public returns (uint)  {\r\n        return storedData;\r\n    }\r\n    \r\n    function increment (uint n) public {\r\n        storedData = storedData + n;\r\n        return;\r\n    }\r\n    \r\n    function decrement (uint n) public {\r\n        storedData = storedData - n;\r\n        return;\r\n    }\r\n    \r\n}\r\n\r\n \r\n\r\n\r\n",
  "sourcePath": "/home/atharv/All Sol files/3_SimpleStorage/contracts/SimpleStorage.sol",
  "compiler": {
    "name": "solc",
    "version": "0.4.24+commit.e67f0147.Emscripten.clang"
  },
  "schemaVersion": "2.0.1",
  "updatedAt": "2018-11-12T06:55:45.529Z"
}